:020000040800F2
:1000000060AD002009030008110300081303000875
:10001000150300081703000819030008000000007A
:10002000000000000000000000000000490200087D
:100030001D03000800000000A5020008C9480008D0
:1000400023030008230300082303000823030008F8
:100050002303000823030008C9170008230300082E
:1000600023030008230300082303000823030008D8
:1000700023030008230300082303000823030008C8
:100080006D1600082303000823030008230300085B
:1000900023030008230300082303000823030008A8
:1000A0002303000823030008230300082303000898
:1000B0002303000823030008230300082303000888
:1000C0002303000823030008230300082303000878
:1000D0002303000823030008230300082303000868
:1000E0002303000823030008230300082303000858
:1000F0002303000823030008230300082303000848
:100100002303000823030008230300082303000837
:100110002303000823030008230300082303000827
:100120002303000823030008230300082303000817
:100130002303000823030008230300082303000807
:1001400023030008230300082303000823030008F7
:1001500023030008230300082303000823030008E7
:1001600023030008230300082303000823030008D7
:1001700023030008230300082303000800000000F5
:10018000230300082303000800F002F800F04CF8F5
:100190000AA090E8000C82448344AAF10107DA45E2
:1001A00001D100F041F8AFF2090EBAE80F0013F0E8
:1001B000010F18BFFB1A43F001031847A07A000093
:1001C000C07A0000103A24BF78C878C1FAD8520724
:1001D00024BF30C830C144BF04680C6070470000C1
:1001E0000023002400250026103A28BF78C1FBD840
:1001F000520728BF30C148BF0B607047642900F028
:10020000B381732900F0E783002070471FB507F022
:10021000F3FC9DE8030000F00BFB00F031FC1FBD78
:1002200010B500F096FC10BD00F0CEFC1146FFF7B3
:10023000EDFF05F01BF800F097FE03B4FFF7F0FFA9
:1002400003BC00F0CFFE00002C4B19680868B0E832
:10025000F04F80F30988BFF36F8F4FF0000080F3F9
:10026000118870470000000008480068006880F3AB
:1002700008884FF0000080F3148862B661B6BFF3BF
:100280004F8FBFF36F8F00DF00BF00BF08ED00E0AE
:10029000DFF80C00016841F470010160704700BF95
:1002A00088ED00E0EFF30980BFF36F8F134B1A68FE
:1002B0001EF0100F08BF20ED108A20E9F04F1060EB
:1002C00009B44FF0A00080F31188BFF34F8FBFF344
:1002D0006F8F06F013FC4FF0000080F3118809BC0B
:1002E00019680868B0E8F04F1EF0100F08BFB0ECB6
:1002F000108A80F30988BFF36F8F70474800002091
:10030000EFF305807047000009488047094800471F
:10031000FEE7FEE7FEE7FEE7FEE7FEE7FEE7FEE7B5
:10032000FEE7FEE704480549054A064B7047000012
:10033000894900088901000860A7002060AD0020FD
:1003400060A9002060A9002070B5064600F054FAAC
:10035000056806F10B0020F00704B4429CBF0020A2
:1003600070BD2B466A68BAB11068A04210D304F180
:10037000080188423CBF5068586007D35168101983
:1003800041601168091B016058601460101D70BD48
:1003900013465268002AE7D12146284600F034FA75
:1003A0000028DED170BD53EA020C00F069802DE90F
:1003B000F04B4FF00006002B1FBFB3FA83F503FA92
:1003C00005F424FA05F65E4012BF1643B2FA82F530
:1003D00002FA05F4C5F120051EBF22FA05FC44EA25
:1003E0000C04203556EA044C4FEA144418BF641C30
:1003F0004FF000084FF00009904271EB030C39D325
:10040000002919BFB1FA81F701FA07F6B0FA80F7AF
:1004100000FA07F6C7F120071EBF20FA07FC46EADC
:100420000C062037B6FBF4FCA7EB0507103F07F0DE
:100430001F0BCBF120060CFA0BFB2CFA06F644BF7F
:10044000B3460026202FA4BF5E464FF0000B5BEAA8
:10045000060C08BF4FF0010B19EB0B09ABFB027C3C
:1004600048EB0608C01B06FB02CC0BFB03CC71EB70
:100470000C01C1E70B46024641464846BDE8F08BF9
:1004800013B54FF000004FF00001AFF30080BDE85E
:100490001C4070470FB4044910B503AA029800F03D
:1004A0009FFA10BC5DF814FB54A600202DE9F04122
:1004B0000E460446002020622046E168884730B39B
:1004C000252805D0D4E901219047206A401CF2E795
:1004D000E168204600278847050018D0A5F14100B3
:1004E000192802D820354FF40067324629462046A5
:1004F0002760FFF783FE40B1012804D0F61D26F0E7
:1005000007060836D8E7361DD6E72846DAE7206A18
:10051000BDE8F08170B50C460546012A05D0287863
:10052000800600D5EA69002302E0012305E05B1C98
:10053000934202D2E05C0028F9D1A869E618C01AFB
:10054000A861286A184428622846AFF3008004E0B6
:10055000D5E9012114F8010B9047B442F8D328469D
:10056000AFF3008070BD00002DE9F0410646002485
:1005700010687529314616A510D0AFF30080002809
:1005800002DA404213A507E031688A0701D512A5B7
:1005900002E0490704D511A5012401E0AFF3008072
:1005A00000210A2206F1240709E0B0FBF2FCB0FBAF
:1005B000F2F302FB1C00303078541846491C002826
:1005C000F3D123462A463046BDE8F04100F098B901
:1005D000000000002D0000002B00000020000000A3
:1005E000032A40F2308010F0030C00F0158011F85F
:1005F000013BBCF1020F624498BF11F801CB00F837
:10060000013B38BF11F8013BA2F1040298BF00F88A
:1006100001CB38BF00F8013B11F0030300F0258047
:10062000083AC0F0088051F8043B083A51F804CB6E
:10063000A0E80810F5E7121D5CBF51F8043B40F834
:10064000043BAFF30080D20724BF11F8013B11F83F
:1006500001CB48BF11F8012B24BF00F8013B00F883
:1006600001CB48BF00F8012B704710B5203AC0F00D
:100670000B80B1E81850203AA0E81850B1E81850A3
:10068000A0E81850BFF4F5AF5FEA027C24BFB1E8E0
:100690001850A0E8185044BF18C918C0BDE8104051
:1006A0005FEA827C24BF51F8043B40F8043B08BF5A
:1006B0007047D20728BF31F8023B48BF11F8012B21
:1006C00028BF20F8023B48BF00F8012B704702F01A
:1006D000FF0343EA032242EA024200F002B84FF06D
:1006E00000020429C0F0128010F0030C00F01B80FF
:1006F000CCF1040CBCF1020F18BF00F8012BA8BF0D
:1007000020F8022BA1EB0C0100F00DB85FEAC17CD0
:1007100024BF00F8012B00F8012B48BF00F8012B83
:1007200070474FF0000200B51346944696462039B4
:1007300022BFA0E80C50A0E80C50B1F12001BFF49A
:10074000F7AF090728BFA0E80C5048BF0CC05DF800
:1007500004EB890028BF40F8042B08BF704748BF4E
:1007600020F8022B11F0804F18BF00F8012B7047C2
:100770004FF0013C50F8042B51F8043B9A4221D130
:10078000A2EB0C03934313EACC1317D150F8042BBC
:1007900051F8043B9A4215D1A2EB0C03934313EAA0
:1007A000CC130BD150F8042B51F8043B9A4209D1D9
:1007B000A2EB0C03934313EACC13DBD04FF0000001
:1007C000704700BFD01A01BAB1FA81F101F01801E7
:1007D00022FA01F0CB40C1F12001DBB2C0B2C01A55
:1007E0002CFA01F3D11A914311EAC311E6D17047F3
:1007F00070477047704700000048704704A700200A
:10080000704770477047704738B504460A46002065
:100810006946AFF30080002808BF38BD0246009942
:10082000204600F0F7F8012038BD012000F0C4B9DF
:10083000F8B5AFF30080054600200C46102000BF3D
:100840000646A819A0420DD9324669460020AFF3EA
:100850000080070008BF00F0AFF90098A04218BF61
:100860000546C419FFF7C8FF05600746F01D20F0D4
:1008700007004619284600F00AF8B44208BFF8BD40
:10088000A21B31463868BDE8F84000F0C3B800212B
:100890000160C0E9011070471020704770B5044630
:1008A000051FFFF7A9FF0068002C14BF446870BD46
:1008B000002C18BFAC423CBF20466468F8D30168E6
:1008C0000A18AA4218BF456003D12A680546114498
:1008D000016028684119A1421CBF6C6070BD61684D
:1008E000696021680844286070BD10B500F08EF87A
:1008F000006810BD10B5044600F088F8046010BD13
:100900002DE9F0470D4699469246044600F1240829
:100910000168880604D5E06921F01001216000E03B
:100920000120A84201DD471B00E00027A1697A19D8
:1009300002EB0900081AA0612078C00602D4204604
:10094000AFF30080002608E0D4E901211AF8060080
:100950009047206A401C761C20624E45F4DB2078CC
:10096000C0060AD52046AFF3008006E0D4E9012195
:1009700030209047206A401C2062381EA7F10107F2
:10098000F4DC07E0D4E9012118F805009047206A5B
:10099000401C2062281EA5F10105F3DC2046AFF3C0
:1009A00000802078000602D50220BDE8F0870120F3
:1009B000FBE710B5436913B1AFF3008001E0FFF727
:1009C000A9FD012010BD127800F124010A70002257
:1009D0004A700122EDE711684FF0FF32E9E70000AD
:1009E000074B70B50D467B4400F033F804462846AB
:1009F00000F042F810B14FF0FF3070BD204670BDDE
:100A0000CF47000000487047FCA600200048704710
:100A1000FCA60020034640688C46002818BF884288
:100A20003CBF03464068F8D318681844884207D092
:100A30000CF1030020F00700001D411A521A014674
:100A4000081D0A60FFF72ABF01694A1C0261087885
:100A5000704700B58FB0CDE90131002105910549FE
:100A60007944CDE9031011466846FFF71FFD0FB02A
:100A700000BD0000E5FFFFFF007B00F08000704735
:100A800010B542485421FFF74CFE41485421FFF76E
:100A900048FE40485421FFF744FE3F493B483C4A4A
:100AA0003F4B08603D490A603A491960531C036591
:100AB000481C1065012008653B48344A39A1784438
:100AC00000F0B6F920B9384878440A3800F05AFAEC
:100AD00037482F4A35A1784400F0AAF920B93448A4
:100AE00078440A3800F04EFA32482A4A2FA1784456
:100AF00000F09EF920B92F4878440A3800F042FAF5
:100B000040232248DC000021224600F06DF920B18C
:100B100025487844543800F035FA1D4822464023D1
:100B2000002100F061F920B121487844543800F0E8
:100B300029FA184822461023002100F055F9002810
:100B400006D01C487844BDE81040563800F01ABA68
:100B500010BD104870B5006D20F001040B4800F086
:100B6000DDF90B4800F0DAF90A4800F0D7F909E09E
:100B7000206D20F00105204600F0D0F92046FFF757
:100B80008DFE2C46002CF3D170BD000000A6002085
:100B900054A60020A8A60020D8000020DC000020D9
:100BA000E0000020720000004071000077000000AB
:100BB0002F7100001F71000010B500F0EBF9BDE8C7
:100BC000104000F0DAB970477546FFF71BFFAE46DC
:100BD00005006946534620F00700854618B020B549
:100BE000FFF7A0FBBDE820404FF000064FF00007E4
:100BF0004FF000084FF0000B21F00701AC46ACE8C5
:100C0000C009ACE8C009ACE8C009ACE8C0098D4631
:100C100070472DE9F04705460C46C86820F42010BF
:100C200040F48000C860800602D5084600F0B3FAA0
:100C3000E06841F282014FF0FF390140022903D000
:100C4000204600F051FAB5E000F42041B1F5004F24
:100C50000FD1C00306D56168E06A884200D8084613
:100C6000606006E02069E0626060606904F0BDF9E0
:100C7000A061A0680022EEB200280DDAE1688B05C1
:100C80000AD4C043A06041F490302260E060606804
:100C9000411C61600670A5E0E0689046226040F467
:100CA0000050E060206968BB606904F0B0F901277A
:100CB00004F12405A0B1A08910F4407F08D0E069B8
:100CC000FFF742FB206118B1E06840F4006016E0D5
:100CD000E7612561E06820F4407040F480600EE038
:100CE000E069FFF731FB00282061F1D0E06840F4B3
:100CF000006010F4407FE06002D140F48070E0605A
:100D000020696060E06825696FF0010AC1051FD5A0
:100D10006168E06A884200D80846411B04D0224638
:100D2000284600F0EBF9F0BBE068010203D5E5626C
:100D3000C4E9015854E0691CE1626160E16940F472
:100D40008030491EC4E9021030462E70BDE8F0879D
:100D5000010202D500F480320AE06068411C616043
:100D60000670E0680A2E40F48030E06006D0002271
:100D7000E16A6068814203D90B4602E00122F7E78D
:100D80000346A7895B1B7F0503D4E7699F4200DD0B
:100D9000E2B1814200D80146E5620F1AC4E9015868
:100DA000002B09DD00E005E022461946284600F048
:100DB000A5F908B14846C9E747B1A069E562656091
:100DC000C01BA061E06840F01000E060E068000235
:100DD00008D56168A069E562491B08446560A061A7
:100DE0005046B3E73046B1E770B5C468A50713D0E5
:100DF000650211D4B2F5807F09D0B2F5007F06D02C
:100E0000B2F5806F08D1012300F1240106E05D1ED8
:100E10006FF07F46B54201D3012070BD0161C3610F
:100E2000416024F470611143C160002070BD000076
:100E30002DE9F0410C4607461646104600F06EF8C4
:100E40002078611C61280AD0722802D077283CD112
:100E500002E00125002405E00225042402E0082424
:100E600048F2020511F8010B2B2806D0622809D0A0
:100E700011F8010C74280AD00BE045F0030544F08A
:100E80000204EFE745F0040544F00104EAE744F00A
:100E900010043846214604F0CDF8411C15D000213D
:100EA000316171604FF40071F560F161706120078C
:100EB00004D530460222002100F09AF8306D40F04F
:100EC000010030653046BDE8F0810020FBE72DE9E8
:100ED000F0410D460646104C206DC10704D0410874
:100EE00004D020F00104F7E722460EE05420FFF77B
:100EF0002BFA07000ED0206D47F001010843542162
:100F000020653846FFF70DFC3A4629463046BDE8D5
:100F1000F0418DE70020D6E700A600202DE9F0473C
:100F200004464FF000094FF0FF37C568D4E9048646
:100F3000A80707D0204600F00BF9304604F042F82D
:100F4000002802DA3846BDE8F087280502D5404679
:100F5000FFF7A4FC4C212046FFF7E3FB206D20F0B7
:100F6000010020654846EEE710B50446AFF3008067
:100F70002046BDE81040FFF760B9002801D000F01E
:100F800031B8704710B500F041F9BDE81040FFF7E7
:100F9000F4BF000010B5012805D0002103A000F027
:100FA0001BF9012010BD09A1F8E700005349475281
:100FB000544D454D3A204F7574206F662068656129
:100FC00070206D656D6F7279000000003A204865F1
:100FD0006170206D656D6F727920636F72727570CC
:100FE0007465640001491820ABBEFEE726000200CC
:100FF0002DE9F041044616460D464769007B8007FF
:101000002ED0384604F003F850BB3EB3012E02D078
:10101000022E25D104E0204600F019F905441DE018
:10102000384603F0E2FFE168002841F01001E1607A
:1010300005DA204600F058F80120BDE8F081C90328
:101040000BD56268E16A914200D81146A269114449
:101050002269891A814200DD08460544002D01DA23
:101060000220EAE7E16A6068E268814206D2910301
:10107000E06203D522F4003141F01002A669002796
:10108000AE4213DCE16A814201D90B4600E003461F
:1010900003EB060C2369ACEB030CAC4506DD814287
:1010A00001D98C4600E084469C4505D1A7602760A5
:1010B00042F02000A5620DE0AD1BE669AE1B814247
:1010C000A66000D90846C01A281A20605819606026
:1010D00022F0200003490840E060002084F84870B6
:1010E000ABE70000BFCFD7FFC16821F4001141F08A
:1010F0008001C16000218160016070472DE9F047E7
:10110000814614460E464FF0FF383248D56857697D
:10111000054209D03846A16903F0C0FF002811DB61
:101120002C48C0430540E5602B46324649463846C8
:1011300003F0CAFFA16920F00042B21A114400284E
:10114000A16103D02046FFF7CFFF4046BDE8F087FE
:1011500070B504460569C06A6168884200D80846CF
:10116000E16821F42011E160C90312D5A84208D03A
:101170002246411B2846FFF7C1FF10B14FF0FF3058
:1011800070BD0020E562C4E90150E06820F48030C1
:10119000E060002070BD10B50446C06820F020005B
:1011A000E060A16AA06988420DD02046FFF7D0FF19
:1011B000E06820F4405040F01000E060A06AA061B8
:1011C0002069E062606044F24001E0688843E060CA
:1011D00010BD00001000020070B505460C460A2044
:1011E00000E06D1C00F02CF835B128780028F8D10B
:1011F00002E0641C00F024F814B120780028F8D133
:10120000BDE870400A2000F01BB8000010B5014690
:1012100002A0FFF7E1FF012010BD00005349475233
:10122000545245443A2052656469726563743A20A9
:1012300063616E2774206F70656E3A2000000000B5
:1012400008B569468DF800000320ABBE08BD10B597
:101250000146C268900703D0900607D5886A0AE065
:10126000FFF7D4FB01210160881E10BD8B6948681F
:1012700018440B69C01A91F848301BB191F8491015
:10128000401A10BD1103FCD50028FADD401E10BD28
:1012900000B587B000BF002001901448006840F0FE
:1012A0000100124908600846006800F00100019042
:1012B00000BF00BF012002900D4803900020049061
:1012C000059002A90B4800F0E1FC00220A2106204B
:1012D00001F0DAFC062001F0C3FC002201210A2003
:1012E00005F03AFD0449086007B000BD30380240FF
:1012F00000002110000002401800002010B5044634
:1013000034B1012C0DD0022C14D0032C24D11AE0BE
:10131000C0201A4948700846407840F030004870B4
:101320001BE08020154948700846407840F03000A6
:10133000487012E0C020114948700846407840F0DB
:101340002000487009E080200C4948700846407829
:1013500040F02000487000E000BF00BF0748407820
:1013600040F00C00054948700846407840F0030002
:101370004870491C042005F007FC10BD1400002033
:101380000FB410B5179C00BF00207E4981F84000C3
:1013900000BF08460068C06940F480600968C86101
:1013A00001221021784800F071FD2A2202A9774815
:1013B000FFF75BF9BDF83200744948850D98C862A3
:1013C0000E98086309220FA970483430FFF74DF9D1
:1013D0009DF845006D4981F83D009DF8460081F873
:1013E0003E0012980864139848641498886415980D
:1013F000C86416980865012065494870022005F008
:10140000C3FB8020624948700846407840F02000C5
:1014100048700846407840F00C0048700846407814
:1014200040F003004870491C042005F0ADFB80200B
:1014300057494870491C052005F0A6FB5449062071
:1014400004F08AFD5248407800F02000504948706E
:101450000846407820F0800048700846407820F028
:10146000400048700846407820F010004870084658
:10147000407820F0040048700846407840F00400AE
:1014800048700846407840F003004870491C062028
:1014900005F07AFB3E49491C082004F05DFD3C48FC
:1014A000407800F0F0003A4948700846407840F033
:1014B00001004870491C082005F066FB3449491CAE
:1014C000092004F049FD3248407800F0F00030492E
:1014D00048700846407840F001004870491C0920D7
:1014E00005F052FB2A49491C0E2004F035FD012C61
:1014F0001AD12748407840F08000254948700846B6
:10150000407840F0400048700846407820F02000C5
:1015100048700846407820F010004870084640782F
:1015200020F00800487003E014B902201849487000
:101530001749491C0E2005F027FB1549491C0F20AF
:1015400004F00AFD002012494870491C0F2005F0E4
:101550001BFB00200E494870491C142005F014FBA9
:101560000B49491C152005F00FFB0949491C1A209D
:1015700005F00AFB0649491C1B2005F005FB10BCC1
:101580005DF814FB94010020000C0240CC03002005
:101590001400002070B50446A4F1320045B2680082
:1015A00045B2EEB211484670411C142005F0ECFA29
:1015B0000E49491C152005F0E7FA642C01DD1820BE
:1015C00007E004EB44000001642190FBF1F01838BF
:1015D000C0B206494870491C202005F0D5FA0349DD
:1015E000491C212005F0D0FA70BD00001400002035
:1015F00010B599201C494870491C002005F0C4FA18
:10160000802019494870491C472005F0BDFA164949
:10161000491C322004F0A0FC1348407840F08000C0
:1016200011494870491C322005F0AEFA0E49491C98
:10163000322004F091FC0C48407820F080000A49E8
:101640004870491C322005F09FFA00200649487076
:10165000491C05F099FA9E2003494870491C022054
:1016600005F092FA10BD00001400002010B50248E9
:1016700000F018F910BD0000DC01002001460878D8
:1016800010381823B0FBF3F20848805CC865032AC1
:1016900005D908686FF30900001D886503E0086834
:1016A0006FF309008865886D70470000197C000899
:1016B000014600208A6A8B69CBB932B1012A0DD06C
:1016C000022A03D0032A10D10EE000BFCB6A03F038
:1016D0008073B3F1807F00D1012007E0CB6AB3F1C2
:1016E000C07F00D1012001E000E000BF34E08B6941
:1016F000B3F5005F1AD132B1012A07D0022A03D014
:10170000032A11D10AE000BF01200EE0CB6A03F0EA
:101710008073B3F1807F00D1012006E0CB6AB3F182
:10172000C07F00D1012000E000BF15E032B1012AE6
:1017300005D0022A04D0032A0CD103E000BF00BF69
:10174000012008E0CB6A03F08073B3F1807F00D101
:10175000012000E000BF00BF704730B50468246876
:1017600024F4802405682C60046863608468402C3D
:1017700004D10468A2600468E16003E00468A16029
:101780000468E26030BD0000002242F210710020C7
:1017900013E00C4B53F8203093F82430012B0BD17D
:1017A000084B53F820309B688B4205DA054B53F801
:1017B000202053F820309968401C0428E9DB1046AB
:1017C00070470000C004002010B5012008490860DF
:1017D0000848006806F026F904463CB14FF08050F6
:1017E00005490860BFF34F8FBFF36F8F10BD000036
:1017F000143C01400000002004ED00E00021002224
:10180000002014E0264B53F8203093F82430012BAD
:101810000CD1234B53F82030DB68032B06D1012277
:101820001F4B53F82010002381F82430401C04285B
:10183000E8DBCAB9002015E0194B53F8203093F8C3
:101840002430012B0DD1164B53F82030DB68022BCE
:1018500007D10122124B53F82010002381F82430C5
:101860000420401C0428E7DBC2B9002014E00C4B24
:1018700053F8203093F82430012B0CD1084B53F847
:101880002030DB68012B06D10122054B53F82010D4
:10189000002381F82430401C0428E8DB0846704708
:1018A000C0040020F8B50446002000908C48006871
:1018B0004FF41651B0FBF1F7A56D2E6894F85C104B
:1018C00008208840304098B12068006800F004008B
:1018D00070B12068006820F004002168086094F866
:1018E0005C1008208840A860606D40F001006065D1
:1018F00094F85C1001208840304068B1206840694D
:1019000000F0800040B194F85C1001208840A8608D
:10191000606D40F00200606594F85C10042088401F
:10192000304068B12068006800F0020040B194F8CF
:101930005C1004208840A860606D40F00400606581
:1019400094F85C1010208840304078B3206800681C
:1019500000F0080050B394F85C1010208840A86094
:101960002068006800F4802080B12068006800F4DE
:10197000002028B9206CC8B12046216C884715E0AA
:10198000A06C98B12046A16C88470FE020680068E1
:1019900000F4807028B92068006820F008002168F1
:1019A0000860206C10B12046216C884794F85C10C8
:1019B000202088403040002865D02068006800F072
:1019C000100000285FD094F85C1020208840A860A8
:1019D00094F83500052828D12068006820F016000A
:1019E000216808602068406920F080002168486113
:1019F000206C08B9A06C28B12068006820F00800AD
:101A00002168086094F85C103F208840A86000BFFF
:101A1000002084F8340000BF012084F83500206DD8
:101A200010B12046216D8847F8BD2068006800F499
:101A3000802080B12068006800F4002028B9606C24
:101A400010B12046616C88471DE0E06BD8B120469C
:101A5000E16B884717E02068006800F4807068B97F
:101A60002068006820F010002168086000BF002096
:101A700084F8340000BF012084F83500E06B10B119
:101A80002046E16B8847606D38B3606D00F001005F
:101A9000F0B1052084F835002068006820F00100CE
:101AA0002168086000BF0098401C0090B84200D92F
:101AB00005E02068006800F001000028F3D100BFB5
:101AC00000BF002084F8340000BF012084F83500F6
:101AD000E06C10B12046E16C884700BFA4E700002D
:101AE000D40000202DE9F0410446002500F0D4F98F
:101AF000074614B90120BDE8F081606A00B100BF5B
:101B000000BF002084F8340000BF022084F83500B4
:101B10002068006820F00100216808600AE000F0F9
:101B2000BBF9C01B052805D920206065032084F877
:101B30003500E0E72068006800F001000028EED1E1
:101B40002068056821480540D4E901010843E1689F
:101B500008432169084361690843A1690843E169B1
:101B60000843216A08430543606A042803D1D4E985
:101B70000B0108430543206805602068456925F08E
:101B80000705606A0543606A04280DD1A06A054311
:101B9000E06A48B12046FFF78BFD28B14020606520
:101BA000012084F83500A6E7206845612046FFF74C
:101BB00065FD064694F85C103F208840B060002028
:101BC0006065012084F83500002094E73F8010F024
:101BD0002DE9F04704460D4616461F464FF0000813
:101BE000D4F8589000BF94F83400012802D10220A4
:101BF000BDE8F087012084F8340000BF94F8350078
:101C0000012825D1022084F83500002060653B467C
:101C1000324629462046FFF7A0FD94F85C103F208D
:101C20008840C9F808002068006840F01600216864
:101C30000860206C28B12068006840F00800216826
:101C400008602068006840F001002168086006E034
:101C500000BF002084F8340000BF4FF00208404667
:101C6000C6E7000070B5044600F016F906462546A2
:101C7000681C10B104480078054400BF00F00CF95E
:101C8000801BA842FAD370BDD0000020F8B50246F0
:101C90000B460025002400200021DCE0012606FA86
:101CA00001F51E6806EA0504AC4273D15E68012E98
:101CB00008D05E68022E05D05E68112E02D05E68E4
:101CC000122E13D190684F000326BE40B0434F0040
:101CD000DE68BE4030439060506801268E40B043BD
:101CE0001E79C6F300168E4030435060D0684F0016
:101CF0000326BE40B0434F009E68BE403043D060D4
:101D00005E68022E02D05E68122E13D1CF0802F157
:101D1000200656F827004E07F70E0F26BE40B043A8
:101D20004F07FF0E1E69BE403043CF0802F1200668
:101D300046F8270010684F000326BE40B0431E79C6
:101D400006F003064F00BE40304310605E6806F0A8
:101D50008056B6F1805F7DD100BF00260096404ED0
:101D6000366846F480463E4F3E603E46366806F48E
:101D70008046009600BF00BF3A4E8F0856F82700F5
:101D80008E07370F0F26BE40B043374EB24202D106
:101D9000002624E05EE0354EB24201D101261EE06D
:101DA000334EB24201D1022619E0324EB24201D185
:101DB000032614E0304EB24201D104260FE02F4E2C
:101DC000B24201D105260AE02D4EB24201D10626CB
:101DD00005E02C4EB24201D1072600E008268F070D
:101DE0003F0FBE4030431F4E8F0846F82700264E57
:101DF0003068A0435E6806F48036B6F5803F00D1B7
:101E00002043214E3060361D3068A0435E6806F4E2
:101E10000036B6F5003F00D120431B4E361D306022
:101E2000361D3068A0435E6806F48016B6F5801F44
:101E300000D12043144E08363060361D3068A04370
:101E40005E6806F40016B6F5001F00D120430E4E62
:101E50000C363060491C1029FFF420AFF8BD00009B
:101E600044380240083801400000024000040240AB
:101E700000080240000C0240001002400014024022
:101E800000180240001C0240003C01400AB1816180
:101E900001E00B048361704701480068704700004F
:101EA000C800002070B504460CB9012070BD94F83C
:101EB0003D0028B9002084F83C00204600F00EFBCD
:101EC000242084F83D002068006820F0010021688B
:101ED00008602068006840F40040216808602068BD
:101EE000006820F400402168086001F0FFF8054612
:101EF0005C496068884206D85B48854201D201206F
:101F000007E0002005E05948854201D2012000E0A9
:101F10000020012800D1C9E75548B5FBF0F620683C
:101F2000406820F03F003043216848604D496068B8
:101F3000884201D8701C07E04FF4967070434FF44C
:101F40007A71B0FBF1F0401C2168096A21F03F0171
:101F500008432168086243496068884214D8681EB3
:101F600061684900B0FBF1F0401CC0F30B0004288D
:101F700001D204203DE0681E61684900B0FBF1F029
:101F8000401CC0F30B0034E0A06838B9681E6168DB
:101F900001EB4101B0FBF1F0401C0AE0681E6168F2
:101FA00001EBC10202EB0111B0FBF1F0401C40F467
:101FB0008040C0F30B0008B901201AE0A06848B9BE
:101FC000681E616801EB4101B0FBF1F0401CC0F3F9
:101FD0000B000CE0681E616801EBC10202EB01110D
:101FE000B0FBF1F0401CC0F30B0040F4804040F423
:101FF00000402168C9694CF6FF729143084321688B
:10200000C861D4E9070108432168096821F0C001CB
:10201000084321680860D4E90310084321688968EF
:1020200048F2FF329143084321688860D4E90501F2
:1020300008432168C96821F0FF0108432168C8608E
:102040002068006840F001002168086000202064DA
:10205000202084F83D000020206384F83E0000BF6B
:1020600024E70000A086010080841E0000093D00D6
:1020700040420F002DE9F84304468946174698462A
:10208000089EFFF709FF054694F83D0020287DD102
:1020900019230122B2492046009501F033FD10B109
:1020A0000220BDE8F88300BF94F83C00012801D16C
:1020B0000220F6E7012084F83C0000BF2068006899
:1020C00000F0010028B92068006840F00100216894
:1020D00008602068006820F4006021680860222001
:1020E00084F83D00102084F83E00002020646762E0
:1020F000A4F82A80608D20859A48E0622B463246FB
:102100004946204601F0D4FB08B10120C9E7208DE3
:1021100088B900BF002000902068406900902068C6
:102120008069009000BF00BF2068006840F4007024
:102130002168086047E0208D012817D120680068D9
:1021400020F480602168086000BF002000902068B3
:102150004069009020688069009000BF00BF20683F
:10216000006840F40070216808602CE0208D02288F
:1021700018D12068006820F4806021680860206819
:10218000006840F400602168086000E0E6E000BFFD
:1021900000200090206840690090206880690090CD
:1021A00000BF10E02068006840F48060216808608B
:1021B00000BF00200090206840690090206880697E
:1021C000009000BF00BFBAE0208D03287ED8208D8C
:1021D000012815D12A463146204601F038FD08B1C4
:1021E00001205EE720680069616A0870606A401C2F
:1021F0006062208D401E2085608D401E60859EE0BF
:10220000208D02282AD133460022574920460095C6
:1022100001F078FC08B1012043E72068006840F431
:1022200000702168086020680069616A0870606A4F
:10223000401C6062208D401E2085608D401E6085A0
:1022400020680069616A0870606A401C6062208DC5
:10225000401E2085608D401E608570E03346002260
:1022600041492046009501F04DFC08B1012018E7D6
:102270002068006820F48060216808602068006998
:10228000616A0870606A401C6062208D401E208573
:10229000608D401E608533460022334920460095FC
:1022A00001F030FC08B10120FBE62068006840F432
:1022B00000702168086020680069616A0870606ABF
:1022C000401C6062208D401E208500E010E0608D83
:1022D000401E608520680069616A0870606A401C61
:1022E0006062208D401E2085608D401E608526E046
:1022F0002A463146204601F0AAFC08B10120D0E66A
:1023000020680069616A0870606A401C6062208D04
:10231000401E2085608D401E608520684069C0F3A6
:10232000800060B120680069616A0870606A401CC2
:102330006062208D401E2085608D401E6085208D4E
:1023400000287FF441AF202084F83D00002084F86D
:102350003E0000BF84F83C0000BFA2E60220A0E6D9
:10236000020010000000FFFF040001002DE9F84307
:102370000446894616461F46DDF82080FFF78CFD8F
:10238000054694F83D0020287ED1192301225149A9
:102390002046009501F0B6FB10B10220BDE8F8839D
:1023A00000BF94F83C00012801D10220F6E701208B
:1023B00084F83C0000BF2068006800F0010028B9E4
:1023C0002068006840F0010021680860206800680B
:1023D00020F4006021680860212084F83D0010206E
:1023E00084F83E000020206466626785608D208549
:1023F0003948E0622B4642464946204601F0F4FA4D
:1024000008B10120CAE700BF0020009020684069A1
:10241000009020688069009000BF00BF44E02A4619
:102420004146204601F053FC50B1206C042805D1F0
:102430002068006840F40070216808600120ADE762
:10244000606A007821680861606A401C6062608D83
:10245000401E6085208D401E208520684069C0F3A5
:10246000800070B1208D60B1606A007821680861D9
:10247000606A401C6062608D401E6085208D401E39
:1024800020852A46414600E022E0204601F00CFB70
:1024900050B1206C042805D12068006840F4007019
:1024A00021680860012079E7208D0028B7D12068D5
:1024B000006840F4007021680860202084F83D0026
:1024C000002084F83E0000BF84F83C0000BF65E7B0
:1024D000022063E7020010000000FFFF10B586B085
:1024E0000446142101A8FEF71CF91B492068884204
:1024F00030D100BF002000901848006840F0020072
:10250000164908600846006800F00200009000BF0D
:1025100000BF4FF410700190122002900020039031
:10252000032004900420059001A90D48FFF7AEFB9D
:1025300000BF0020009009481030006840F40010EF
:102540000649103108600846006800F40010009049
:1025500000BF00BF06B010BD00540040303802403C
:102560000004024010B586B00446206880680590DB
:102570008B492068884201D18A4801E04FF0402011
:1025800080680490206840680390854920688842EC
:1025900001D1844801E04FF040204068029060681B
:1025A000B0F5007F02D0606800286FD1059800F078
:1025B0000200022806D1039800F0800010B12046E6
:1025C00001F006FC049800F0010030B1029800F020
:1025D000400010B1204601F0C5FB049800F0400017
:1025E000402832D1029800F0200070B36C49206876
:1025F000884201D16B4801E04FF04020406820F054
:102600006000674A2168914201D1664901E04FF0BC
:10261000402148602068406820F0A00021684860A0
:1026200000BF002001902068C06801902068806889
:10263000019000BF00BF012084F84100606C40F0B1
:1026400002006064204600F0B0F8059800F0080031
:10265000082831D1039800F0200000282CD02068F1
:10266000406820F0A000216848604D4920688842F9
:1026700001D14C4801E04FF04020406820F060005C
:10268000474A2168914202D1464902E015E04FF0E5
:102690004021486000BF00200190206880680190C0
:1026A00000BF00BF012084F84100606C40F00400CE
:1026B0006064204600F079F870E0049800F00200B1
:1026C000022806D1029800F0800010B1204601F0E7
:1026D0009BFB059800F0010030B1039800F040002A
:1026E00010B1204601F021FB059800F04000402881
:1026F00027D1039800F0200018B32068406820F02C
:1027000060002168486026492068884201D1254838
:1027100001E04FF04020406820F0A000204A2168EE
:10272000914201D11F4901E04FF040214860012052
:1027300084F84100606C40F002006064204600F0C4
:1027400034F8049800F00800082827D1029800F017
:10275000200018B312492068884201D1114801E0D5
:102760004FF04020406820F0A0000D4A21689142BF
:1027700001D10C4901E04FF04021486020684068D9
:1027800020F0600021684860012084F84100606CFE
:1027900040F004006064204600F007F806B010BD69
:1027A0000038004000340040704770472DE9F04782
:1027B000044614B90120BDE8F08794F8410038B907
:1027C000002084F8400065486063204600F0CEF8A1
:1027D000022084F841002068C06940F6BF71884338
:1027E0002168C861022021680862606902283CD023
:1027F000E06808B9102600E02026A068202800D84C
:102800007600012000F092FA80462069B0F5007F42
:1028100017D1E06850B1B000B8FBF0F000EB8000D9
:1028200041006069B1FBF0F0451D13E0F000B8FB1A
:10283000F0F000EB800041006069B1FBF0F0451D55
:1028400008E0B8FBF6F000EB800041006069B1FBE6
:10285000F0F0451D0A20B5FBF0F505F00109A5EBE8
:10286000090047084FEA092902E002274FF0000952
:10287000022F01D3FF2F05D9606C40F01000606477
:10288000012098E7206940EA09003843216808627E
:10289000606840F40060A1680843E1680843A169EA
:1028A00008432168C96940F6BF7291430843216813
:1028B000C861206A01284AD12948606329492068F3
:1028C000884201D1284801E04FF04020C06940F61D
:1028D000BF718843234A2168914201D1224901E016
:1028E0004FF04021C86102201E4A2168914201D167
:1028F0001D4901E04FF0402108621A4920688842D2
:1029000001D1194801E04FF04020C0691FFA80FA58
:102910006068B0F5007F01D0606810B94FF4807531
:1029200000E00025A089218B084321890843284322
:1029300080B240F4006040EA0A0A0A4920688842EE
:1029400001D1094801E04FF04020C0F81CA0002050
:102950006064012084F8410000202CE7D93E000883
:1029600065250008003800400034004010B586B0EE
:102970000446142101A8FDF7D4FE3A492068884294
:102980006ED100BF002000903748006840F400403E
:10299000354908600846006800F40040009000BF18
:1029A00000BF00BF002000902F481038006840F0A2
:1029B00001002D49103908600846006800F0010048
:1029C000009000BF00BF00BF0020009008460068D4
:1029D00040F0040008600846006800F00400009021
:1029E00000BF00BF10200190022002900020039041
:1029F00004900620059001A91C48FFF747F94FF401
:102A0000A450019002200290002003900490062020
:102A1000059001A91648FFF739F9164816490860CC
:102A2000002048604021144881600021C1604FF4BB
:102A30008061016149004161890081614911C16181
:102A40000021016204214162032181620021C162EF
:102A50000163FFF747F800BF0748A063846300BF26
:102A600006B010BD003C004040380240000002406B
:102A70000008024088600240DC010020704700002E
:102A80002DE9F04104460E46154606B115B9012060
:102A9000BDE8F08100BF94F84000012801D1022078
:102AA000F6E7012084F8400000BF94F841000128B7
:102AB00006D000BF002084F8400000BF0220E7E7F6
:102AC000032084F841000020606466622068C069C9
:102AD00000F00707032F01D0052F0AD14FF6FF7032
:102AE00000EA450020854FF6FF7000EA450060854A
:102AF00001E0258565851F48A16B08641E48A16B10
:102B0000C8631E48A16BC864238DD4F800C00CF1C3
:102B10000C02616AA06BFFF75BF868B1606C40F073
:102B200008006064012084F8410000BF002084F8A0
:102B3000400000BF0120ABE72068C06900F480605E
:102B400028B92068C06940F480602168C8612068A5
:102B5000406800F0020028B92068406840F0020098
:102B60002168486000BF002084F8400000BF00BF1B
:102B70008EE70000CB3E0008A33E0008753E00082B
:102B800070477047034800680349097808440149C1
:102B900008607047C8000020D000002010B50A4827
:102BA000006840F40070084908600846006840F476
:102BB00080600860032000F0A5F80F2000F006F800
:102BC00000F02AF8002010BD003C024070B5044619
:102BD0000E4800784FF47A71B1FBF0F00C490968A7
:102BE000B1FBF0F5284600F02DFD08B1012070BDC5
:102BF000102C07D200222146501E00F045F805484F
:102C0000046001E00120F2E70020F0E7D00000209E
:102C1000D4000020CC00002008B500BF00200090A8
:102C20000E48006840F480400C490860084600687F
:102C300000F48040009000BF00BF00BF0020009063
:102C4000081F006840F08050091F086008460068AF
:102C500000F08050009000BF00BF08BD4438024023
:102C60000146084600280DDB00BF00BF00F01F032F
:102C700001229A4043099B0003F1E023C3F800219D
:102C800000BF00BF00BF70472DE9F05F80460D46D2
:102C90001646002701F0F4FF074639462A46334618
:102CA00001F00700C0F1070ABAF1040F02D94FF092
:102CB000040A01E0C0F1070AD14600F1040ABAF1A2
:102CC000070F02D24FF0000A01E0A0F1030AD44638
:102CD0004FF0010A0AFA09FAAAF1010A0AEA020AFD
:102CE0000AFA0CFA4FF0010B0BFA0CFBABF1010BDB
:102CF0000BEA030B4AEA0B042146404601F0C8FFE9
:102D0000BDE8F09F00BF00F00702064B19684FF6C0
:102D1000FF031940044B0B4343EA0221014B1960A6
:102D200000BF70470CED00E00000FA0570B50146E9
:102D30000020002200230024012934D11B4D2D68DE
:102D400005F400031BB1012B29D1194829E0174DC7
:102D50002D1F2D6805F48005B5F5800F08D1134DA2
:102D60002D1F2D6805F03F05124EB6FBF5F207E06A
:102D70000E4D2D1F2D6805F03F050F4EB6FBF5F2E9
:102D80000A4D7C352D68C5F3881505FB02F4074D07
:102D90007C352D68C5F30275B4FBF5F001E0002029
:102DA00000BF00BF00BF00BF70BD00000838024078
:102DB0000080BB0000127A000024F400F8B504463D
:102DC00000250026207800F0010020B9207800F0CE
:102DD000040004282FD100205B498866FFF75CF8C7
:102DE000054606E0FFF758F8401B022801D90320EA
:102DF000F8BD56480068C0F3C0600028F2D1606892
:102E00008101207A41EA0070504984310860012034
:102E10004D498866FFF740F8054606E0FFF73CF8A5
:102E2000401B022801D90320E2E748480068C0F3AC
:102E3000C0600028F2D0207800F0020002287DD186
:102E400000BF0020009041484030006840F08050B2
:102E50003E49403108600846006800F0805000900C
:102E600000BF00BF3A48006840F4807038490860ED
:102E7000FFF712F8054606E0FFF70EF8401B0228A0
:102E800001D90320B4E73248006800F480700028BC
:102E9000F2D02E487030006800F440764EB3A0891E
:102EA00000F44070B04224D028487030006820F40C
:102EB00040760120274908600020086023487030D0
:102EC0000660006800F0010098B1FEF7E5FF0546D6
:102ED00008E0FEF7E1FF401B41F28831884201D94A
:102EE000032085E7194870300068C0F340000028CF
:102EF000EFD000BFA08900F44070B0F5407F0CD146
:102F000012480830006820F4F810134AE1681140B4
:102F100008430E490831086007E00C480830006893
:102F200020F4F8100949083108600848703000683A
:102F3000A189C1F30B010843044900E002E07031AC
:102F4000086000BF002053E70000474200380240FD
:102F500000700040400E4742FFFCFF0F70B5044672
:102F60000D460CB9012070BD5848006800F00F00F4
:102F7000A84209D255490D700846006800F00F00BC
:102F8000A84201D00120EEE7207800F002000228DC
:102F90001DD1207800F00400042805D14C480068B9
:102FA00040F4E0504A490860207800F00800082802
:102FB00005D14748006840F46040454908604448EE
:102FC000006820F0F000A1680843414908602078BB
:102FD00000F00100A8B36068012807D13C48083818
:102FE0000068C0F34040B8B90120BCE7606802281F
:102FF00002D06068032807D1354808380068C0F35C
:10300000406048B90120AEE7314808380068C0F395
:10301000400008B90120A6E72D48006820F0030011
:10302000616808432A490860FEF736FF064609E052
:10303000FEF732FF801B41F28831884202D903201B
:1030400091E707E02248006800F00C006168B0EBEF
:10305000810FEDD11D48006800F00F00A84209D98A
:103060001A490D700846006800F00F00A84201D010
:10307000012078E7207800F00400042807D11448E4
:10308000006820F4E050E1680843114908602078A6
:1030900000F00800082808D10D48006820F46040BE
:1030A000216940EAC1000A49086000F02FF8084988
:1030B0000968C1F30311074A515CC840064908601A
:1030C00006480068FFF782FD00204CE7003C024004
:1030D00008380240217C0008D4000020CC000020E9
:1030E0000148006870470000D400002000B5FFF7D9
:1030F000F7FF04490968C1F38221034A515CC840C3
:1031000000BD000008380240317C00082DE9F0477E
:10311000002400250026A1462548006800F00C0088
:1031200020B1042805D008283AD105E0DFF88490C2
:1031300039E0DFF8849036E01D48001F006800F099
:103140003F041B48001F006800F4800078B11A4853
:103150001749091F0968C1F38811A0FB01700146D6
:10316000224600233846FDF71EF905460EE01148B9
:103170000F49091F0968C1F38811A0FB01700146BE
:10318000224600233846FDF70EF905460848001F81
:103190000068C0F30140401C4600B5FBF6F902E0B0
:1031A000DFF8109000BF00BF4846BDE8F087000080
:1031B000083802400024F40000127A00F8B50446F2
:1031C0000CB90120F8BD207800F00100002874D06F
:1031D000F948006800F00C0004280DD0F64800689B
:1031E00000F00C00082813D1F348001F006800F419
:1031F0008000B0F5800F0BD1EF4808380068C0F3AD
:103200004040002859D06068002856D10120D9E7F5
:1032100000BF6068B0F5803F08D1E7480838006813
:1032200040F48030E449083908601EE06068B0F579
:10323000A02F0DD1E0480838006840F48020DE4916
:10324000083908600846006840F4803008600CE0E7
:10325000D9480838006820F48030D7490839086018
:103260000846006820F48020086000BF606890B1C4
:10327000FEF712FE054606E0FEF70EFE401B642830
:1032800001D903209EE7CC4808380068C0F34040CD
:103290000028F1D011E0FEF7FFFD054606E0FEF73D
:1032A000FBFD401B642801D903208BE7C248083886
:1032B0000068C0F340400028F1D1207800F00200FF
:1032C00002285FD1BC48006800F00C0058B1BA4831
:1032D000006800F00C0008281CD1B748001F0068E7
:1032E00000F48000B0B9B44808380068C0F340006A
:1032F00020B1E068012801D0012063E7AE4808381A
:10330000006820F0F800216940EAC100AA490839A4
:10331000086037E0E06800B30120A8490860FEF7C4
:10332000BBFD054606E0FEF7B7FD401B022801D9AC
:10333000032047E7A04808380068C0F34000002891
:10334000F1D09D480838006820F0F800216940EA73
:10335000C10099490839086014E0002097490860C5
:10336000FEF79AFD054606E0FEF796FD401B022893
:1033700001D9032026E7904808380068C0F34000D0
:103380000028F1D1207800F0080008282CD16069CD
:10339000A8B101208A490860FEF77EFD054606E0D7
:1033A000FEF77AFD401B022801D903200AE7824874
:1033B0006C300068C0F340000028F1D014E0002019
:1033C0007F490860FEF768FD054606E0FEF764FDEC
:1033D000401B022801D90320F4E677486C300068CE
:1033E000C0F340000028F1D1207800F00400042848
:1033F00070D1002770483830006800F0805090B9D4
:1034000000BF002000906C483830006840F08050C9
:103410006949383108600846006800F08050009023
:1034200000BF00BF01276748006800F48070B0B992
:103430006448006840F4807062490860FEF72CFD23
:10344000054606E0FEF728FD401B022801D90320AF
:10345000B8E65C48006800F480700028F2D000BF35
:10346000A068012808D154486830006840F0010085
:103470005149683108601DE0A06805280DD14E480B
:103480006830006840F004004B4968310860084625
:10349000006840F0010008600CE0474868300068B0
:1034A00020F001004449683108600846006820F0B7
:1034B0000400086000BFA068A8B1FEF7EDFC054657
:1034C00009E0FEF7E9FC401B41F28831884202D94D
:1034D000032077E626E0384868300068C0F34000F3
:1034E0000028EED013E0FEF7D7FC054608E0FEF713
:1034F000D3FC401B41F28831884201D9032061E6A8
:103500002D4868300068C0F340000028EFD1012F3B
:1035100007D129483830006820F0805026493831DA
:10352000086000BFA069002845D02348006800F06B
:103530000C0008285DD0A069022845D100201F4951
:103540000866FEF7A9FC054606E0FEF7A5FC401B51
:10355000022801D9032035E6174808380068C0F36F
:1035600040600028F1D1D4E907010843616A40EACC
:1035700081110122A06AC2EB500041EA00412C20D7
:10358000005D41EA00600C49091F086001200B49F9
:103590000866FEF781FC054606E0FEF77DFC401B51
:1035A000022801D903200DE6034808380068C0F35B
:1035B00040600028F1D03FE0083802400000474258
:1035C000800E47420070004000201C490866FEF74C
:1035D00063FC054606E0FEF75FFC401B022801D9AC
:1035E0000320EFE516480068C0F340600028F2D1E0
:1035F00022E0A069012800D1E4E51148001D066819
:1036000006F48001E069814214D106F03F01206A8E
:1036100081420FD147F6C0703040616A884209D1BB
:1036200006F44031A06A814204D106F07061E06A7C
:10363000814201D00120C5E50020C3E500004742DA
:103640000038024070B504462546681EB0F1807F00
:1036500001D301200FE0681E4FF0E02148610F21E7
:103660004FF0FF3001F014FB00204FF0E0218861A3
:1036700007200861002070BD10B504460CB9012078
:1036800010BD94F83D0028B9002084F83C00204685
:1036900000F00CF8022084F83D00211D206801F0A4
:1036A00081F9012084F83D000020E9E770470146D8
:1036B000022081F83D000868806800F00702062AB1
:1036C00005D00868006840F001000B681860012010
:1036D00081F83D000020704770B504460D4616463F
:1036E00000BF94F83C00012801D1022070BD0120E8
:1036F00084F83C0000BF022084F83D0036B1042E5F
:103700001BD0082E31D00C2E5ED145E02946206812
:1037100001F0C6F92068806940F0080021688861DE
:103720002068806920F00400216888612068806931
:10373000296908432168886147E02946206801F02B
:10374000E7F92068806940F400602168886120689A
:10375000806920F480602168886120688069296917
:1037600040EA0120216888612FE02946206801F0A5
:103770000DFA2068C06940F008002168C86120681F
:10378000C06920F004002168C8612068C069296907
:1037900008432168C86118E02946206801F032FA20
:1037A0002068C06940F400602168C8612068C06971
:1037B00020F480602168C8612068C069296940EAF6
:1037C00001202168C86100E000BF00BF012084F82B
:1037D0003D0000BF002084F83C0000BF00BF85E72B
:1037E00010B504460CB9012010BD94F83D0028B96D
:1037F000002084F83C00204600F00CF8022084F8F9
:103800003D00211D206801F0CDF8012084F83D0025
:103810000020E9E77047000070B504460E4601221B
:103820003146206801F02AF90F492068884203D008
:103830000E492068884201D1012000E0002028B113
:103840002068406C40F4004021684864206880682B
:1038500000F00705062D05D02068006840F0010043
:1038600021680860002070BD000001400004014094
:10387000014608684069C0F38020B0B16FF48060F1
:103880000A68506100200863202081F83D00002074
:1038900081F83E00086C40F00400086400BF00207E
:1038A00081F83C0000BF012070470020FCE70000C9
:1038B0002DE9F84304460D4690461E46E76A206807
:1038C000006840F4806021680860082F04D0012F50
:1038D00002D017F5803F06D12068006840F4807060
:1038E0002168086008E0206B112805D12068006875
:1038F00040F4807021680860434600224FF00111B7
:103900002046009600F0FEF860B12068006800F4E0
:103910008070B0F5807F02D14FF4007020640320E6
:10392000BDE8F8832069B0F5804F05D1E8B240F0DA
:1039300001002168086149E005F44070F02141EA86
:10394000E01021680861334642462649204600F0CF
:103950001CF908B10120E3E7E8B2216808613346A9
:1039600042462049891F204600F00FF908B1012086
:10397000D6E700BF002000902068406900902068D2
:103980008069009000BF00BF2068006840F480702C
:1039900021680860434600224FF00111204600963E
:1039A00000F0B0F858B12068006800F48070B0F5FD
:1039B000807F02D14FF4007020640320B0E705F44B
:1039C0004070F12141EAE010216808613346424627
:1039D0000449891F204600F0D8F808B101209FE76C
:1039E00000209DE7080001002DE9F84304460D463C
:1039F00017469846E66A082E04D0012E02D016F526
:103A0000803F06D12068006840F48070216808601B
:103A100008E0206B122805D12068006840F480700F
:103A2000216808603B4600224FF001112046CDF886
:103A3000008000F067F860B12068006800F48070D2
:103A4000B0F5807F02D14FF4007020640320BDE800
:103A5000F8832069B0F5804F04D105F0FE0021689D
:103A6000086112E005F44070F02141EAE01021689D
:103A7000086143463A460B49204600F086F808B1F3
:103A80000120E4E7E8B22168086143463A46054967
:103A9000891F204600F079F808B10120D7E70020FF
:103AA000D5E700000800010070B504460D46164633
:103AB00020E02046FFF7DCFE08B1012070BD681C45
:103AC000C0B1FEF7E9F9801BA84200D895B90020E3
:103AD0002063202084F83D00002084F83E00206C04
:103AE00040F02000206400BF002084F83C0000BFAC
:103AF0000120E3E720684069C0F380000028D8D0A7
:103B00000020DBE72DE9F04104460D4617461E462E
:103B1000DDF818801CE0701CD0B1FEF7BDF9A0EBF9
:103B20000800B04200D89EB900202063202084F80D
:103B30003D00002084F83E00206C40F0200020640E
:103B400000BF002084F83C0000BF0120BDE8F081E8
:103B5000C5F3074001280AD120684069A9B208408E
:103B6000A9B2884201D101200BE0002009E02068C1
:103B70008069A9B20840A9B2884201D1012000E0C1
:103B80000020B842C7D00020E0E72DE9F04104460C
:103B90000D4616461F463DE020684069C0F3802070
:103BA000E8B12068006840F40070216808606FF494
:103BB00080602168486100202063202084F83D0057
:103BC000002084F83E00206C40F00400206400BF18
:103BD000002084F83C0000BF0120BDE8F081701C8B
:103BE000C0B1FEF759F9C01BB04200D896B9002009
:103BF0002063202084F83D00002084F83E00206CE3
:103C000040F02000206400BF002084F83C0000BF8A
:103C10000120E2E7C5F3074001280AD12068406986
:103C2000A9B20840A9B2884201D101200BE00020CE
:103C300009E020688069A9B20840A9B2884201D190
:103C4000012000E000200028A6D00020C5E770B5C4
:103C500004460D46164632E020684069C0F3001065
:103C6000A0B16FF01000216848610020206320207F
:103C700084F83D00002084F83E00206C206400BFE2
:103C8000002084F83C0000BF012070BDFEF704F95D
:103C9000801BA84200D895B900202063202084F81A
:103CA0003D00002084F83E00206C40F0200020649D
:103CB00000BF002084F83C0000BF0120E5E7206839
:103CC0004069C0F380100028C6D00020DDE770B541
:103CD00004460D46164620E02046FFF7C9FD08B110
:103CE000012070BD681CC0B1FEF7D6F8801BA84249
:103CF00000D895B900202063202084F83D000020E2
:103D000084F83E00206C40F02000206400BF0020BA
:103D100084F83C0000BF0120E3E720684069C0F35D
:103D2000C0100028D8D00020DBE710B5044620687A
:103D3000C06881B2E26A901CE0621180608E401E11
:103D40006086608E68B92068406820F06000216855
:103D50004860608D28B9012084F841002046FEF7B4
:103D600023FD10BD10B5044617492068884201D1D3
:103D7000164801E04FF04020C06881B2E26A901C12
:103D8000E0621180608E401E6086608ED8B90E4958
:103D90002068884201D10D4801E04FF04020406882
:103DA00020F06000084A2168914201D1074901E0F2
:103DB0004FF040214860608D28B9012084F841000F
:103DC0002046FEF7F1FC10BD0038004000340040F2
:103DD00010B50446616A881C606208882168C86062
:103DE000608D401E6085608D68B92068406820F055
:103DF000A00021684860608E28B9012084F8410045
:103E00002046FEF7D1FC10BD10B50446616A881C3F
:103E100060620888154A2168914201D1144901E085
:103E20004FF04021C860608D401E6085608DD8B91C
:103E30000E492068884201D10D4801E04FF0402032
:103E4000406820F0A000094A2168914201D1084948
:103E500001E04FF040214860608E28B9012084F8CD
:103E600041002046FEF7A0FC10BD000000380040D5
:103E70000034004070B50546AC6B2068406820F007
:103E8000030021684860002060856086012084F876
:103E90004100606C40F0080060642046FEF785FC3D
:103EA00070BD70B50546AC6BE86950B920684068D4
:103EB00020F002002168486000206085012084F81D
:103EC00041002046FEF75CFE70BD70B50446A56B50
:103ED0002846FEF756FE70BD1CB504462068806873
:103EE000019094F84100042830D1019800F00100BD
:103EF00038B120684068C0F3801010B1204600F04F
:103F000059F8019800F0400040281FD1206840680F
:103F1000C0F34010D0B12068406820F060002168F4
:103F2000486000BF002000902068C06800902068B2
:103F30008068009000BF00BF012084F84100606CE1
:103F400040F0020060642046FEF72FFC94F8410028
:103F500003282ED1019800F00200022807D1206822
:103F60004068C0F3C01010B1204600F03EF8019840
:103F700000F0080008281CD120684068C0F34010F9
:103F8000B8B12068406820F0A0002168486000BFF8
:103F90000020009020688068009000BF00BF0120D2
:103FA00084F84100606C40F0040060642046FEF735
:103FB000FCFB1CBD10B504462068C068E16A08809F
:103FC000E06A801CE062608E401E6086608E58B998
:103FD0002068406820F0600021684860012084F873
:103FE00041002046FEF74AFD10BD10B50446606A48
:103FF00000882168C860606A801C6062608D401E15
:104000006085608D58B92068406820F0A000216864
:104010004860012084F841002046FEF7B1FD10BD44
:104020000A49096801F0010171B10849803909683C
:1040300001F0010141B100BF4FF060410968002962
:10404000FAD04FF06042107070470000800E00E020
:1040500008B500BF002000900A48006840F4001036
:10406000084908600846006800F40010009000BF8E
:1040700000BF002205211020FEF706FE1020FEF7EB
:10408000EFFD08BD3038024000B587B000BF00200A
:1040900001902748006840F0010025490860084663
:1040A000006800F00100019000BF00BF00BF0020C9
:1040B00001900846006840F0080008600846006863
:1040C00000F00800019000BF00BF00BF0020019079
:1040D0000846006840F0040008600846006800F0E8
:1040E0000400019000BF00BF00BF002001900846FF
:1040F000006840F0020008600846006800F0020016
:10410000019000BF00BF00224FF210010948FDF7E7
:10411000BDFE4FF210000290012003900020049099
:10412000059002A90348FDF7B1FD07B000BD0000EE
:1041300030380240000C024010B50A480A490860B5
:104140000A484860002108488160C1604FF48041FE
:104150000161002141618161C1610162FDF7A2FE3F
:1041600010BD00000054004040010020A086010066
:1041700010B50B480B4908604015486000210948FC
:104180008160C1604FF4007101614BF68031416183
:1041900000218161C1610162FEF708FB10BD0000D2
:1041A000003C00409401002000B587B000BF002013
:1041B00001900E48006840F001000C490860084674
:1041C000006800F00100019000BF00BF4020029095
:1041D000022003900020049005900220069002A97E
:1041E0000348FDF753FD07B000BD00003038024022
:1041F0000000024008B500BF002000901048006891
:1042000040F002000E4908600846006800F0020015
:10421000009000BF00BF0B480B49086044F61F61C7
:104220000948C16053200849486000210648816060
:1042300001614161FFF720FA0348FFF738FA08BD32
:104240004038024000040040E400002000B587B080
:1042500000BF002001900E48006840F008000C49A3
:1042600008600846006800F00800019000BF00BF29
:104270004FF470400290012003900220049000202F
:10428000059002A90348FDF701FD07B000BD00003D
:1042900030380240000C024010B500224FF480512B
:1042A0000A48FDF7F3FD00224FF400510748FDF7DF
:1042B000EDFD00224FF480410448FDF7E7FD0022A8
:1042C0004FF400410148FDF7E1FD10BD000C024034
:1042D00070B505460C4635B1012D0BD0022D10D01E
:1042E000032D1CD114E0E2B24FF480510D48FDF7CC
:1042F000CDFD14E0E2B24FF400510A48FDF7C6FDCF
:104300000DE0E2B24FF480410648FDF7BFFD06E044
:10431000E2B24FF400410348FDF7B8FD00BF00BF13
:1043200070BD0000000C024070B5002542F2107410
:10433000002017E00D4A52F8202092690C4E366892
:10434000911B0A4A52F820205369002909DD002BED
:1043500007DDCA1AA24203DA1446044E56F820506A
:1043600000BF401C0428E5DB284670BDC0040020C7
:104370003C0000201CB500200A4908700A4908705A
:1043800003220021012002F0E7FC08490860002018
:10439000022103468022CDE9001005A1064803F062
:1043A000C9F81CBD45000020460000204000002048
:1043B0004D616E6167657200916700081CB5074822
:1043C000052100234FF48072CDE9001004A10748B5
:1043D00003F0B0F802F0BAFA1CBD0000340000206F
:1043E0005363686564756C65720000000D650008B4
:1043F00000203249086002204860052088600A20B9
:1044000008610320C86002204861052088610A20F5
:10441000C861012081F82400002008620120284999
:10442000086003204860072088601420086101208C
:10443000C86003204861072088611420C8610120FA
:1044400081F824000020086202201E490860032031
:10445000486007208860142008610220C86003209B
:104460004861072088611420C861012081F8240078
:1044700000200862032014490860042048600A20D4
:1044800088601E2008610220C860042048610A205C
:1044900088611E20C861012081F824000020086284
:1044A00006480A4908600648486006488860064889
:1044B000C860002006490860704700002004002002
:1044C000480400207004002098040020C00400204C
:1044D0003C00002010B51748007830B1012806D004
:1044E000022806D0032808D105E013A405E013A490
:1044F00003E013A401E013A400BF00BF224612484A
:10450000016812A0FBF7C6FF1A48016A1AA0FBF760
:10451000C1FF2248016A22A0FBF7BCFF2948016ABB
:1045200029A0FBF7B7FF3248016A32A0FBF7B2FFC0
:1045300010BD000046000020465053004544460090
:104540004C4C46004C4554003C0000200A0A44757F
:1045500072696E67202564207469636B73206F66CF
:10456000202573207363686564756C65722E2E2E2A
:104570000A000000200400200945737072657373FF
:104580006F2068617309092564206D697373656420
:1045900020646561646C696E65730A0048040020DC
:1045A000094C617474652068617309092564206D84
:1045B000697373656420646561646C696E65730A10
:1045C000000000007004002009436170707563638F
:1045D000696E6F2068617309092564206D697373C2
:1045E000656420646561646C696E65730A0000002F
:1045F00098040020094D6F636861206861730909A0
:104600002564206D697373656420646561646C69F9
:104610006E65730A0A0A000010B5A8B000224FF4B4
:1046200080514F48FDF732FC012291034C48FDF7C1
:104630002DFC2A224B4913A8FCF717F84948408D56
:10464000ADF876004748C06A1E904648006B1F9040
:1046500009224449343120A8FCF707F8414890F872
:104660003D008DF889003F4890F83E008DF88A00A3
:104670003C48006C23903B48406C24903948806C47
:1046800025903848C06C26903648006D2790002051
:10469000442217A911906846FBF7E7FF13A80FC83B
:1046A000FCF76EFE1E20FCF775FF0320FCF726FECC
:1046B000FCF79EFF9FED2C0A2C4880ED000A362067
:1046C0002B490880002432E0600000EE900AF8EEEA
:1046D000E00A9FED281A60EE810A244890ED001A46
:1046E00060EE810AB0EE600A00F0E6FADFED220A21
:1046F00020EE200A214880ED000A90ED000ABDEE70
:10470000C00A10EE100A00B261001D4A22F8110022
:104710001A4890ED000ABDEEC00A10EE100A00B271
:10472000012101EB440122F81100601C84B2104801
:1047300000888442C8DB0E4800884FF6FF7101EA0A
:1047400040020F490F48FEF79BF94FF4FA70FDF74E
:1047500089FA002210210248FDF798FB28B010BD0D
:10476000000C024040010020C92F963C10000020A0
:1047700008000020D00F494000007A440C000020BF
:10478000040300209401002010B5FFF761FCFFF73F
:10479000D3FCFFF7EDFC36200349088003489FED6A
:1047A000040A00F017FD10BD080000203C020020A4
:1047B00000005C4430B50023002200200FE01C4CB8
:1047C00054F8204094F82440012C07D1184C54F898
:1047D00020406469002C01DD02460420401C0428AE
:1047E000EDDB1146481C17E0114C54F8204094F8BA
:1047F0002440012C0FD10E4C54F8204064690C4D1C
:1048000055F821506D69AC4205DA094C54F8204046
:10481000646904B10146401C0428E5DB044850F8F3
:104820002100406910B1024850F82130184630BDCF
:10483000C004002010B5FFF7B7FCFFF7DBFC00F069
:1048400021F810BD30B1012809D002280CD003286E
:1048500014D10EE040F22621094A11600EE04FF417
:104860007A71074A116009E040F2DC51044A116094
:1048700004E04FF4FA61024A116000BF00BF7047C4
:104880003404004010B50E48FEF7AAFF60200D4921
:104890000860002048608860086100220848FEF730
:1048A0001BFF00210648FEF7B7FF04220549044814
:1048B000FEF712FF04210248FEF7AEFF10BD000014
:1048C000E40000202401002010B5FEF75BF902F09F
:1048D00061FE012801D002F025FA10BD00B597B0A5
:1048E00000BF002001902648006840F08050244915
:1048F00008600846006800F08050019000BF00BFCB
:1049000000BF002001901F48006840F480401D490E
:1049100008600846006800F48040019000BF00BFB6
:10492000012006900004079002200C9041050D9193
:1049300008210E914FF4A8710F91022110910721C7
:10494000119106A8FEF73AFC0F2012900220139056
:10495000002014904FF4A05015904FF48050169002
:10496000052112A8FEF7FAFA0120029064200390B4
:104970000221049102A8FEF721FA17B000BD000041
:1049800040380240007000400548006840F4700064
:10499000034908604FF000600149803908607047A2
:1049A00088ED00E010B50268294B98420ED0B0F1B6
:1049B000804F0BD0274B984208D0274B984205D008
:1049C000264B984202D0264B984203D122F0700227
:1049D0004B681A431E4B984220D0B0F1804F1DD037
:1049E0001C4B98421AD01C4B984217D01B4B984234
:1049F00014D01B4B984211D01A4B98420ED01A4B30
:104A000098420BD0194B984208D0194B984205D0C8
:104A1000184B984202D0184B984203D122F44072AE
:104A2000CB681A4322F080034C6943EA0402026017
:104A30008B68C3620B688362054B984202D0084BB7
:104A4000984201D10B6903630123436110BD00004B
:104A5000000001400004004000080040000C00403D
:104A60000004014000400140004401400048014072
:104A700000180040001C00400020004030B501F04C
:104A80001F05012404FA05F3046A9C430462046AC6
:104A900001F01F0502FA05F52C43046230BD000049
:104AA00030B5056A25F001050562026A436884692C
:104AB00024F0700424F003040D682C4322F0020259
:104AC0008D682A43104DA84200D103E00F4DA84243
:104AD00006D100BF22F00802CD682A4322F004026A
:104AE000094DA84202D0094DA84207D123F4807392
:104AF00023F400734D692B438D692B43436084611C
:104B00004D684563026230BD000001400004014071
:104B100030B5056A25F010050562026A43688469AC
:104B200024F4E04424F440740D6844EA052422F09F
:104B300020028D6842EA0512124DA84200D103E01E
:104B4000114DA84207D100BF22F08002CD6842EA91
:104B5000051222F040020B4DA84202D00A4DA84295
:104B600009D123F4806323F400634D6943EA85038C
:104B70008D6943EA8503436084614D688563026201
:104B800030BD0000000001400004014030B5056A5E
:104B900025F480750562026A4368C46924F07004D4
:104BA00024F003040D682C4322F400728D6842EA5D
:104BB0000522124DA84200D103E0114DA84207D1B1
:104BC00000BF22F40062CD6842EA052222F480622E
:104BD0000A4DA84202D00A4DA84209D123F48053BD
:104BE00023F400534D6943EA05138D6943EA051325
:104BF0004360C4614D68C563026230BD000001407E
:104C00000004014030B5056A25F480550562036A49
:104C10004468C26922F4E04222F440720D6842EA1C
:104C2000052223F400538D6843EA0533084DA8425A
:104C300002D0084DA84204D124F480444D6944EACE
:104C400085144460C2614D680564036230BD000094
:104C500000000140000401404100080218BF042088
:104C60000A0E18BF40F001004FF07F4232EA010106
:104C700008BF40F00200012808BF0520704700006F
:104C800002480068C0F30220704700000CED00E00D
:104C900010B5002804DB0A07130E054A135406E07A
:104CA0000A07140E034A00F00F031B1FD45410BD53
:104CB00000E400E018ED00E000B510EE101A2DED54
:104CC000028B81B0524A6846B2EB410F2ED94FF0A9
:104CD000E640B0EB410F94BF00204FF0FF30009052
:104CE0000098B0EE408A00286ADB10F0010F4BD02C
:104CF00068EE080A9FED471A9FED470A00EE810A09
:104D00009FED461A10F0020F00EE801AB7EE000A6F
:104D100000EE810A02BF01B0BDEC028B00BD00BFF6
:104D200001B0B1EE400ABDEC028B00BD3C4B21F05E
:104D30000042934241D911F0004FDFED3A0A20EED4
:104D4000201ADFED390A19BF31EE601A71EE200A20
:104D500031EE201A71EE600ABDEEE01A11EE100A73
:104D60009FED321A00F0030000EEC10A9FED301AE9
:104D7000009000EEC10A9FED2F1A00EEC10A9FEDD0
:104D80002E1A00EEC10AABE728EE080A9FED2B1A97
:104D9000DFED2B0A10F0020F40EE410A9FED291AB9
:104DA00000EE201A61EE000AB0EE480A08EE200A72
:104DB000B6D101B0BDEC028B00BD00F059F88FE711
:104DC00018EE100A4000B0F17F4F0DD218EE100A15
:104DD000FFF742FF042808BF00F042F8B0EE480A8F
:104DE00001B0BDEC028B00BD09D10120FBF782FDB3
:104DF00001B0BDEC028B5DF804EB00F029B801B006
:104E0000B0EE480ABDEC028B5DF804EB00F01CB874
:104E1000B61F927EB93AB2BACA9F2A3DDDFFFFBEE5
:104E2000490E494683F9223F0000004B0000C93F6C
:104E300000A0FD390020A2331A61342C336D4C39A7
:104E4000DA82083CA0AA2ABE30EE000A70470000B1
:104E5000DFED020A80EEA00A7047000000000000AB
:104E60009FED020A20EE000A7047000000000010CB
:104E70002DE9F0014FF07F42B2EB410F9FBF4FF0A1
:104E8000FF310160BDE8F00170474FF0004242EA97
:104E90000123C1F3C752783A551112F01F0C434C4D
:104EA000CCF120067C44C1F3C752A2F178024FEA4C
:104EB000621204EB820254F8254008BFD2E9015681
:104EC00012D0556804FA0CF425FA06F73C439768AB
:104ED00005FA0CF527FA06F8D26807FA0CFCF2403E
:104EE00045EA08054CEA0206A4FB034CA5FB035265
:104EF000A6FB03631D449D4234BF012600261319FF
:104F0000334416B1934202D903E0934201D2012205
:104F100000E00022624402F1200C9206DC0C42EA1E
:104F2000443200EE102A5B03DFED210AF8EEC01ACE
:104F300000EE103A4FEA9C1C11F0004FB8EE400A08
:104F4000C0F800C020EE201A00EE105ADFED190A5A
:104F5000B8EE400A20EE200A71EE810A70EE800A57
:104F600010EE902A02F500626FF30B0200EE902A19
:104F700070EEE11A31EEC11ADFED101A30EE411A6F
:104F80009FED0D0A20EE800A01EE210A9FED0C1A1A
:104F900000EE810A04BFBDE8F0017047CCF18051FA
:104FA0000160BDE8F001B1EE400A7047942D0000A9
:104FB000000000360000802C22AAFD29DB0FC92F3B
:104FC0000000C92F01466FF40040084420B10128B9
:104FD00004D0022806D103E0002070470020FCE73F
:104FE0000020FAE74FF0FF30F7E701466FF400408A
:104FF000084420B1012804D0022806D103E0002093
:1050000070470020FCE70020FAE70020F8E701469F
:105010006FF40040084420B1012804D0022806D1D2
:1050200003E0012070470120FCE70120FAE700209F
:10503000F8E7000070B504460D4614B94FF0FF3094
:1050400070BD20783A281AD10EA12046FBF790FBBC
:1050500010B948F20100F3E70CA12046FBF788FBEA
:1050600010B948F20200EBE70AA12046FBF780FBEB
:1050700010B948F20300E3E74FF0FF30E0E74FF0EC
:10508000FF30DDE73A535444494E00003A5354444C
:105090004F5554003A5354444552520002466FF45F
:1050A0000040104420B1012805D0022809D105E0B4
:1050B0004FF0FF3070474FF0FF30FBE74FF0FF300D
:1050C000F8E74FF0FF30F5E72DE9F04106460C46D2
:1050D000154698466FF40040304420B1012806D0B0
:1050E000022811D10EE04FF0FF30BDE8F08105E05D
:1050F00014F8017B384600F0B7FF6D1E002DF7D184
:105100000020F2E70020F0E74FF0FF30EDE700006D
:1051100010B5012005490870FFF76AF900231A4607
:1051200019460348006801F0B7FE10BD4500002095
:105130004000002010B50446FFF7AEF80E480068A6
:10514000012809D100200D49087000231A460C4897
:10515000006801F079FF0BE007480068022807D1DA
:105160000649087000231A460548006801F06CFFE4
:1051700000200149086010BD300000201C00002004
:10518000180000200B4A0169126892FBF1F301FB41
:10519000132171B9012180F82410064A01691268AF
:1051A0001144C161034A81681268114481614168F8
:1051B000416170473C0000208A68002A01DCFBF74F
:1051C00028BD521E8A604A68C0B2531C4B601070E2
:1051D0007047000070B52DED028BB0EE408A054699
:1051E000002431E0600000EE900AF8EEE00A9FED46
:1051F0001A1A60EE810A194890ED001A60EE810AD1
:10520000B0EE600AFFF758FDDFED150A20EE200A28
:10521000144880ED000A90ED000ABDEEC00A10EEC1
:10522000100A00B2610025F811000E4890ED000A46
:10523000BDEEC00A10EE100A00B2012101EB4401DC
:1052400025F81100601C84B2074800888442C9DB3D
:10525000BDEC028B70BD0000D00F49401000002053
:1052600000007A440C000020080000201CB5FFF765
:105270008BFBFDF793FCFFF731FBFEF705FFFEF715
:10528000E5FFFFF7D7FAFCF703F8FFF77DFAFFF722
:1052900071F80C480A2100238022CDE900100AA1F0
:1052A0000C4802F047F90C4800231A4640F2DC5142
:1052B00000900AA002F016FC0D490860FFF77EF886
:1052C00000BFFEE700000020765461736B427574E6
:1052D000746F6E00D96500083551000862757474EA
:1052E0006F6E507265737354696D657200000000D3
:1052F000040000202DE9F04105460E461C480768D1
:105300001C480068001D00F0C7FE50B9194800682D
:1053100090F82C10012088401749096881431648ED
:105320000160681C38B936B112480168091D13487C
:1053300000F0B2FF1AE07C190E4800684460BC42DD
:1053400007D20C480168091D0D48006800F08AFF6B
:105350000CE008480168091D0A48006800F082FF57
:1053600009480068844201D207480460BDE8F08122
:105370005C0000204800002060000020C4050020E0
:10538000500000204C0000207800002010B504469A
:1053900000F08EFF24480068401C23490860234821
:1053A000006840B9214804600846006801280DD112
:1053B00000F010FA0AE01E48006838B91B4800687F
:1053C000C06AE16A884201D8184804601948006838
:1053D000401C1849086008460068606494F82C1066
:1053E0000120884014490968084313490860E16AAC
:1053F00001EB8101114A02EB8100211D00F04CFFFD
:1054000000F082FF0A48006868B108480068C06A76
:10541000E16A884207D24FF0805009490860BFF323
:105420004F8FBFF36F8F10BD580000204800002041
:10543000640000207400002060000020100500209F
:1054400004ED00E010B500F033FF10480068D0B95B
:105450000F4800F0F7FE0F4800F0F4FE0C480E492C
:1054600008600C480D49086000220C21052001F05D
:1054700073FC064908600846006820B108A103488B
:10548000006801F007F800F03FFF10BD9000002019
:10549000D8050020EC050020880000208C000020AA
:1054A000546D72510000000010B516E000F000FFCE
:1054B0000C48C068C468201D00F0EEFD0A48006872
:1054C000401E0949086009480068401E07490860F5
:1054D00000F01AFF204600F05FF80448006800283A
:1054E000E4D110BDB0050020580000205400002079
:1054F00070B504460D46206C70B1216CE068014423
:10550000E160D4E90210884201D32168E1602846B5
:10551000226CE168FBF764F870BD2DE9F0410446A8
:105520000F4615464FF00008A66B206C48B920685E
:1055300000282CD1A06802F0E7F880460020A06087
:1055400025E07DB93946226C6068FBF749F8216C8B
:10555000606808446060D4E90101884217D320687C
:10556000606014E03946226CE068FBF739F8216C82
:10557000E068411AE1602168E068884203D2216C4A
:10558000A068411AE160022D01D106B1761E701C9F
:10559000A0634046BDE8F08110B50446206B00F0E2
:1055A000D3FE204600F0D0FE10BD01464A6A22B16B
:1055B0000A6B1268C2F1050000E00020704700008D
:1055C0000146084A126812680AB9012200E0002266
:1055D0000A600A6822B9034A1268D268106800E0BB
:1055E000002070478800002030B54FF42043174852
:1055F00000F007042CB1C01D20F00700134C041B61
:105600001B1B0246124C22600024114D6C60D01806
:10561000083820F007000F4C206000240D4D2D6845
:105620006C600C4D2D682C601146441A4C60094C7E
:1056300024680C60084D4C682C60084D4C682C6048
:105640004FF00044064D2C6030BD000000060020E5
:10565000A8000020B0000020B8000020B400002006
:10566000C400002000BFFFF71FFF064800680128A4
:10567000F9D94FF0805004490860BFF34F8FBFF352
:105680006F8FF0E71005002004ED00E02DE9F041F8
:1056900006460D4617469846069C0DB9246000E064
:1056A0002760E66325640121204601F0A9FB84F808
:1056B0004C80BDE8F0812DE9F05F82460E469046B1
:1056C0009B460A9F0C9C4FEA8801A522206BFAF7A3
:1056D000FEFFA8F10100216B01EB800929F0070909
:1056E00009F0070008B9012000E0002058B900BF08
:1056F000A02080F31188BFF34F8FBFF36F8F00BFDF
:1057000000BF00BFFDE786B1002507E0715D04F131
:1057100034004155705D00B902E06D1C102DF5D3C9
:1057200000BF00214320015502E0002084F834002E
:10573000052F00D30427E762E76400202065201DC1
:1057400000F08DFD04F1180000F089FD2461C7F11F
:105750000500A06164620020606584F858005A4624
:105760005146484600F0E2FB20600B9808B10B98C8
:105770000460BDE8F09F2DE9F04706460D46174648
:105780009846DDE908940DB1012000E0002058B9E9
:1057900000BFA02080F31188BFF34F8FBFF36F8F3E
:1057A00000BF00BF00BFFDE78CB1FFF74BFE2660D6
:1057B000A561C4F81C80C4F82090201D00F04FFDA6
:1057C0002FB194F8280040F0040084F82800BDE8C8
:1057D000F087000010B5002407E004EB84010F4AB5
:1057E00002EB810000F02EFD641C052CF5D30C4863
:1057F00000F028FD0B4800F025FD0B4800F022FDCD
:105800000A4800F01FFD0A4800F01CFD0448094941
:10581000086004480849086010BD00001005002019
:1058200074050020880500209C050020B00500209C
:10583000C40500204C0000205000002010B5014697
:10584000164800E0006803688B42FBD302464368B9
:1058500013448B4204D143684C682344436001469F
:105860000A464B6813440468A34211D10C4C0368E8
:105870002468A34208D04B680468646823444B60E2
:1058800003681B680B6005E0054B1B680B6001E0BB
:1058900003680B60884200D0016010BDA8000020A2
:1058A000B00000202DE9F04104460D4616461F4683
:1058B0004FF0000865602461B5420CD8F01BA16967
:1058C000884202D34FF0010811E0211D0948006809
:1058D00000F0C8FC0BE0BE4204D2BD4202D34FF040
:1058E000010804E0211D0448006800F0BBFC4046AC
:1058F000BDE8F0818C0000208800002070B50546CE
:1059000000F0D6FCA86B08B9012400E0002400F0E8
:10591000FBFC204670BD70B5054600F0C9FCA86BC5
:10592000E96B884201D1012400E0002400F0ECFC86
:10593000204670BDF8B505460F461A480068C06895
:10594000C468201D00F0A8FB94F8280000F00400B3
:10595000F0B1A06941192B463A462046FFF7A2FF55
:10596000E0B1002003462A4601460090204602F09E
:1059700001F906465EB900BFA02080F31188BFF38D
:105980004F8FBFF36F8F00BF00BF00BFFDE705E083
:1059900094F8280020F0010084F828002046216AAD
:1059A0008847F8BD8800002070B586B08DE0039868
:1059B0000028FBDB059C606908B9012000E000209D
:1059C00010B9201D00F068FB02A800F0DDF80546C4
:1059D00003980A2877D2DFE800F00905073A426504
:1059E00006083B4300BF00BF00BF00BF94F828007B
:1059F00040F0010084F828000498A2698118034649
:105A00002A462046FFF74EFF00B32046216A88470A
:105A100094F8280000F00400C0B100200090049821
:105A2000A169421800231946204602F0A3F8064651
:105A30005EB900BFA02080F31188BFF34F8FBFF382
:105A40006F8F00BF00BF00BFFDE700BF3CE000BF9D
:105A500094F8280020F0010084F8280034E000BF0A
:105A600094F8280040F0010084F828000498A06110
:105A7000A06908B1012000E0002058B900BFA020B3
:105A800080F31188BFF34F8FBFF36F8F00BF00BF4C
:105A900000BFFDE7A06941192B462A462046FFF7C3
:105AA00001FF11E094F8280000F0020020B9204620
:105AB00000F04AFC06E006E094F8280020F001001F
:105AC00084F8280000E000BF00BF002203A90448BA
:105AD000006801F04DFB00287FF469AF06B070BD8F
